{
	"data": {
		"bytecode": {
			"linkReferences": {},
			"object": "60c0604052600b60809081526a2730ba3ab932aa37b5b2b760a91b60a0525f9061002990826102c5565b50604080518082019091526003815262272a2960e91b602082015260019061005190826102c5565b506002805460ff19166012179055655af3107a4000600e5565b5e620f48000600f5534801561007e575f80fd5b50604051610f4e380380610f4e83398101604081905261009d9161037f565b600480546001600160a01b031916331790556002546100c09060ff16600a61048f565b6100ca90826104a4565b60038190556064906100dd90600a6104a4565b6100e791906104bb565b6005556003546064906100fb90600a6104a4565b61010591906104bb565b6006556003546064906101199060146104a4565b61012391906104bb565b60075560035460649061013790600a6104a4565b61014191906104bb565b60085560035460649061015590601e6104a4565b61015f91906104bb565b600981905560085460075460065460055460035461017d91906104da565b61018791906104da565b61019191906104da565b61019b91906104da565b6101a591906104da565b6004546001600160a01b03165f908152600a60205260409020556009546008546007546006546005546101d891906104ed565b6101e291906104ed565b6101ec91906104ed565b6101f691906104ed565b305f908152600a60205260409020556102124262278d006104ed565b60108190556102249062278d006104ed565b60115550610500565b634e487b7160e01b5f52604160045260245ffd5b600181811c9082168061025557607f821691505b60208210810361027357634e487b7160e01b5f52602260045260245ffd5b50919050565b601f8211156102c057805f5260205f20601f840160051c8101602085101561029e5750805b601f840160051c820191505b818110156102bd575f81556001016102aa565b50505b505050565b81516001600160401b038111156102de576102de61022d565b6102f2816102ec8454610241565b84610279565b6020601f821160018114610324575f831561030d5750848201515b5f19600385901b1c1916600184901b1784556102bd565b5f84815260208120601f198516915b828110156103535787850151825560209485019460019092019101610333565b508482101561037057868401515f19600387901b60f8161c191681555b50505050600190811b01905550565b5f6020828403121561038f575f80fd5b5051919050565b634e487b7160e01b5f52601160045260245ffd5b6001815b60018411156103e5578085048111156103c9576103c9610396565b60018416156103d757908102905b60019390931c9280026103ae565b935093915050565b5f826103fb57506001610489565b8161040757505f610489565b816001811461041d576002811461042757610443565b6001915050610489565b60ff84111561043857610438610396565b50506001821b610489565b5060208310610133831016604e8410600b8410161715610466575081810a610489565b6104725f1984846103aa565b805f190482111561048557610485610396565b0290505b92915050565b5f61049d60ff8416836103ed565b9392505050565b808202811582820484141761048957610489610396565b5f826104d557634e487b7160e01b5f52601260045260245ffd5b500490565b8181038181111561048957610489610396565b8082018082111561048957610489610396565b610a418061050d5f395ff3fe608060405260043610610130575f3560e01c8063811be779116100a8578063c10b93581161006d578063c10b935814610327578063d0febe4c1461033c578063dd62ed3e14610344578063ee2923d91461037a578063f51f96dd146103bd578063f68f210b146103d2575f80fd5b8063811be779146102885780638da5cb5b1461029d57806395d89b41146102d4578063a5ce413b146102e8578063ade6fa27146102fc575f80fd5b8063313ce567116100f9578063313ce567146101bc57806345bc78ab146101e7578063665a11ca146102125780636816521a1461022757806370a082311461023c5780637547c7a314610267575f80fd5b80620e7fa81461013457806306fdde031461015c57806315f0c2201461017d57806318160ddd14610192578063229f3e29146101a7575b5f80fd5b34801561013f575f80fd5b50610149600e5481565b6040519081526020015b60405180910390f35b348015610167575f80fd5b506101706103e7565b60405161015391906107b4565b348015610188575f80fd5b5061014960065481565b34801561019d575f80fd5b5061014960035481565b3480156101b2575f80fd5b5061014960105481565b3480156101c7575f80fd5b506002546101d59060ff1681565b60405160ff9091168152602001610153565b3480156101f2575f80fd5b50610149610201366004610804565b600c6020525f908152604090205481565b34801561021d575f80fd5b5061014960085481565b348015610232575f80fd5b5061014960055481565b348015610247575f80fd5b50610149610256366004610804565b600a6020525f908152604090205481565b348015610272575f80fd5b50610286610281366004610824565b610472565b005b348015610293575f80fd5b5061014960095481565b3480156102a8575f80fd5b506004546102bc906001600160a01b031681565b6040516001600160a01b039091168152602001610153565b3480156102df575f80fd5b50610170610560565b3480156102f3575f80fd5b5061028661056d565b348015610307575f80fd5b50610149610316366004610804565b600d6020525f908152604090205481565b348015610332575f80fd5b5061014960115481565b610286610678565b34801561034f575f80fd5b5061014961035e36600461083b565b600b60209081525f928352604080842090915290825290205481565b348015610385575f80fd5b50600554600654600754600854600954604080519586526020860194909452928401919091526060830152608082015260a001610153565b3480156103c8575f80fd5b50610149600f5481565b3480156103dd575f80fd5b5061014960075481565b5f80546103f39061086c565b80601f016020809104026020016040519081016040528092919081815260200182805461041f9061086c565b801561046a5780601f106104415761010080835404028352916020019161046a565b820191905f5260205f20905b81548152906001019060200180831161044d57829003601f168201915b505050505081565b335f908152600a60205260409020548111156104cc5760405162461bcd60e51b8152602060048201526014602482015273496e73756666696369656e742062616c616e636560601b60448201526064015b60405180910390fd5b335f908152600a6020526040812080548392906104ea9084906108b8565b9091555050335f908152600c60205260408120805483929061050d9084906108d1565b9091555050335f818152600d602052604090819020429055517febedb8b3c678666e7f36970bc8f57abf6d8fa2e828c0da91ea5b75bf68ed101a906105559084815260200190565b60405180910390a250565b600180546103f39061086c565b335f908152600c6020526040902054806105be5760405162461bcd60e51b81526020600482015260126024820152714e6f7468696e6720746f20756e7374616b6560701b60448201526064016104c3565b335f908152600d602052604081205462015180906105dc90426108b8565b6105e690846108e4565b6105f091906108fb565b6106019066038d7ea4c680006108e4565b335f908152600c6020526040812055905061061c81836108d1565b335f908152600a60205260408120805490919061063a9084906108d1565b909155505060405182815233907f85082129d87b2fe11527cb1b3b7a520aeb5aa6913f88a3d8757fe40d1db02fdd9060200160405180910390a25050565b5f60105442111561068b57600f5461068f565b600e545b6002549091505f9082906106a79060ff16600a6109fd565b6106b190346108e4565b6106bb91906108fb565b6004546001600160a01b03165f908152600a602052604090205490915081111561071d5760405162461bcd60e51b8152602060048201526013602482015272496e73756666696369656e7420737570706c7960681b60448201526064016104c3565b6004546001600160a01b03165f908152600a6020526040812080548392906107469084906108b8565b9091555050335f908152600a6020526040812080548392906107699084906108d1565b909155505060045460405182815233916001600160a01b0316907fddf252ad1be2c89b69c2b068fc378daa952ba7f163c4a11628f55a4df523b3ef9060200160405180910390a35050565b602081525f82518060208401528060208501604085015e5f604082850101526040601f19601f83011684010191505092915050565b80356001600160a01b03811681146107ff575f80fd5b919050565b5f60208284031215610814575f80fd5b61081d826107e9565b9392505050565b5f60208284031215610834575f80fd5b5035919050565b5f806040838503121561084c575f80fd5b610855836107e9565b9150610863602084016107e9565b90509250929050565b600181811c9082168061088057607f821691505b60208210810361089e57634e487b7160e01b5f52602260045260245ffd5b50919050565b634e487b7160e01b5f52601160045260245ffd5b818103818111156108cb576108cb6108a4565b92915050565b808201808211156108cb576108cb6108a4565b80820281158282048414176108cb576108cb6108a4565b5f8261091557634e487b7160e01b5f52601260045260245ffd5b500490565b6001815b600184111561095557808504811115610939576109396108a4565b600184161561094757908102905b60019390931c92800261091e565b935093915050565b5f8261096b575060016108cb565b8161097757505f6108cb565b816001811461098d5760028114610997576109b3565b60019150506108cb565b60ff8411156109a8576109a86108a4565b50506001821b6108cb565b5060208310610133831016604e8410600b84101617156109d6575081810a6108cb565b6109e25f19848461091a565b805f19048211156109f5576109f56108a4565b029392505050565b5f61081d60ff84168361095d56fea26469706673582212200d973c12265cfd72db6fce3a7319430283df6cb0f7f22e2f9294f126f5d738da64736f6c634300081a0033",
			"opcodes": "PUSH1 0xC0 PUSH1 0x40 MSTORE PUSH1 0xB PUSH1 0x80 SWAP1 DUP2 MSTORE PUSH11 0x2730BA3AB932AA37B5B2B7 PUSH1 0xA9 SHL PUSH1 0xA0 MSTORE PUSH0 SWAP1 PUSH2 0x29 SWAP1 DUP3 PUSH2 0x2C5 JUMP JUMPDEST POP PUSH1 0x40 DUP1 MLOAD DUP1 DUP3 ADD SWAP1 SWAP2 MSTORE PUSH1 0x3 DUP2 MSTORE PUSH3 0x272A29 PUSH1 0xE9 SHL PUSH1 0x20 DUP3 ADD MSTORE PUSH1 0x1 SWAP1 PUSH2 0x51 SWAP1 DUP3 PUSH2 0x2C5 JUMP JUMPDEST POP PUSH1 0x2 DUP1 SLOAD PUSH1 0xFF NOT AND PUSH1 0x12 OR SWAP1 SSTORE PUSH6 0x5AF3107A4000 PUSH1 0xE SSTORE PUSH6 0xB5E620F48000 PUSH1 0xF SSTORE CALLVALUE DUP1 ISZERO PUSH2 0x7E JUMPI PUSH0 DUP1 REVERT JUMPDEST POP PUSH1 0x40 MLOAD PUSH2 0xF4E CODESIZE SUB DUP1 PUSH2 0xF4E DUP4 CODECOPY DUP2 ADD PUSH1 0x40 DUP2 SWAP1 MSTORE PUSH2 0x9D SWAP2 PUSH2 0x37F JUMP JUMPDEST PUSH1 0x4 DUP1 SLOAD PUSH1 0x1 PUSH1 0x1 PUSH1 0xA0 SHL SUB NOT AND CALLER OR SWAP1 SSTORE PUSH1 0x2 SLOAD PUSH2 0xC0 SWAP1 PUSH1 0xFF AND PUSH1 0xA PUSH2 0x48F JUMP JUMPDEST PUSH2 0xCA SWAP1 DUP3 PUSH2 0x4A4 JUMP JUMPDEST PUSH1 0x3 DUP2 SWAP1 SSTORE PUSH1 0x64 SWAP1 PUSH2 0xDD SWAP1 PUSH1 0xA PUSH2 0x4A4 JUMP JUMPDEST PUSH2 0xE7 SWAP2 SWAP1 PUSH2 0x4BB JUMP JUMPDEST PUSH1 0x5 SSTORE PUSH1 0x3 SLOAD PUSH1 0x64 SWAP1 PUSH2 0xFB SWAP1 PUSH1 0xA PUSH2 0x4A4 JUMP JUMPDEST PUSH2 0x105 SWAP2 SWAP1 PUSH2 0x4BB JUMP JUMPDEST PUSH1 0x6 SSTORE PUSH1 0x3 SLOAD PUSH1 0x64 SWAP1 PUSH2 0x119 SWAP1 PUSH1 0x14 PUSH2 0x4A4 JUMP JUMPDEST PUSH2 0x123 SWAP2 SWAP1 PUSH2 0x4BB JUMP JUMPDEST PUSH1 0x7 SSTORE PUSH1 0x3 SLOAD PUSH1 0x64 SWAP1 PUSH2 0x137 SWAP1 PUSH1 0xA PUSH2 0x4A4 JUMP JUMPDEST PUSH2 0x141 SWAP2 SWAP1 PUSH2 0x4BB JUMP JUMPDEST PUSH1 0x8 SSTORE PUSH1 0x3 SLOAD PUSH1 0x64 SWAP1 PUSH2 0x155 SWAP1 PUSH1 0x1E PUSH2 0x4A4 JUMP JUMPDEST PUSH2 0x15F SWAP2 SWAP1 PUSH2 0x4BB JUMP JUMPDEST PUSH1 0x9 DUP2 SWAP1 SSTORE PUSH1 0x8 SLOAD PUSH1 0x7 SLOAD PUSH1 0x6 SLOAD PUSH1 0x5 SLOAD PUSH1 0x3 SLOAD PUSH2 0x17D SWAP2 SWAP1 PUSH2 0x4DA JUMP JUMPDEST PUSH2 0x187 SWAP2 SWAP1 PUSH2 0x4DA JUMP JUMPDEST PUSH2 0x191 SWAP2 SWAP1 PUSH2 0x4DA JUMP JUMPDEST PUSH2 0x19B SWAP2 SWAP1 PUSH2 0x4DA JUMP JUMPDEST PUSH2 0x1A5 SWAP2 SWAP1 PUSH2 0x4DA JUMP JUMPDEST PUSH1 0x4 SLOAD PUSH1 0x1 PUSH1 0x1 PUSH1 0xA0 SHL SUB AND PUSH0 SWAP1 DUP2 MSTORE PUSH1 0xA PUSH1 0x20 MSTORE PUSH1 0x40 SWAP1 KECCAK256 SSTORE PUSH1 0x9 SLOAD PUSH1 0x8 SLOAD PUSH1 0x7 SLOAD PUSH1 0x6 SLOAD PUSH1 0x5 SLOAD PUSH2 0x1D8 SWAP2 SWAP1 PUSH2 0x4ED JUMP JUMPDEST PUSH2 0x1E2 SWAP2 SWAP1 PUSH2 0x4ED JUMP JUMPDEST PUSH2 0x1EC SWAP2 SWAP1 PUSH2 0x4ED JUMP JUMPDEST PUSH2 0x1F6 SWAP2 SWAP1 PUSH2 0x4ED JUMP JUMPDEST ADDRESS PUSH0 SWAP1 DUP2 MSTORE PUSH1 0xA PUSH1 0x20 MSTORE PUSH1 0x40 SWAP1 KECCAK256 SSTORE PUSH2 0x212 TIMESTAMP PUSH3 0x278D00 PUSH2 0x4ED JUMP JUMPDEST PUSH1 0x10 DUP2 SWAP1 SSTORE PUSH2 0x224 SWAP1 PUSH3 0x278D00 PUSH2 0x4ED JUMP JUMPDEST PUSH1 0x11 SSTORE POP PUSH2 0x500 JUMP JUMPDEST PUSH4 0x4E487B71 PUSH1 0xE0 SHL PUSH0 MSTORE PUSH1 0x41 PUSH1 0x4 MSTORE PUSH1 0x24 PUSH0 REVERT JUMPDEST PUSH1 0x1 DUP2 DUP2 SHR SWAP1 DUP3 AND DUP1 PUSH2 0x255 JUMPI PUSH1 0x7F DUP3 AND SWAP2 POP JUMPDEST PUSH1 0x20 DUP3 LT DUP2 SUB PUSH2 0x273 JUMPI PUSH4 0x4E487B71 PUSH1 0xE0 SHL PUSH0 MSTORE PUSH1 0x22 PUSH1 0x4 MSTORE PUSH1 0x24 PUSH0 REVERT JUMPDEST POP SWAP2 SWAP1 POP JUMP JUMPDEST PUSH1 0x1F DUP3 GT ISZERO PUSH2 0x2C0 JUMPI DUP1 PUSH0 MSTORE PUSH1 0x20 PUSH0 KECCAK256 PUSH1 0x1F DUP5 ADD PUSH1 0x5 SHR DUP2 ADD PUSH1 0x20 DUP6 LT ISZERO PUSH2 0x29E JUMPI POP DUP1 JUMPDEST PUSH1 0x1F DUP5 ADD PUSH1 0x5 SHR DUP3 ADD SWAP2 POP JUMPDEST DUP2 DUP2 LT ISZERO PUSH2 0x2BD JUMPI PUSH0 DUP2 SSTORE PUSH1 0x1 ADD PUSH2 0x2AA JUMP JUMPDEST POP POP JUMPDEST POP POP POP JUMP JUMPDEST DUP2 MLOAD PUSH1 0x1 PUSH1 0x1 PUSH1 0x40 SHL SUB DUP2 GT ISZERO PUSH2 0x2DE JUMPI PUSH2 0x2DE PUSH2 0x22D JUMP JUMPDEST PUSH2 0x2F2 DUP2 PUSH2 0x2EC DUP5 SLOAD PUSH2 0x241 JUMP JUMPDEST DUP5 PUSH2 0x279 JUMP JUMPDEST PUSH1 0x20 PUSH1 0x1F DUP3 GT PUSH1 0x1 DUP2 EQ PUSH2 0x324 JUMPI PUSH0 DUP4 ISZERO PUSH2 0x30D JUMPI POP DUP5 DUP3 ADD MLOAD JUMPDEST PUSH0 NOT PUSH1 0x3 DUP6 SWAP1 SHL SHR NOT AND PUSH1 0x1 DUP5 SWAP1 SHL OR DUP5 SSTORE PUSH2 0x2BD JUMP JUMPDEST PUSH0 DUP5 DUP2 MSTORE PUSH1 0x20 DUP2 KECCAK256 PUSH1 0x1F NOT DUP6 AND SWAP2 JUMPDEST DUP3 DUP2 LT ISZERO PUSH2 0x353 JUMPI DUP8 DUP6 ADD MLOAD DUP3 SSTORE PUSH1 0x20 SWAP5 DUP6 ADD SWAP5 PUSH1 0x1 SWAP1 SWAP3 ADD SWAP2 ADD PUSH2 0x333 JUMP JUMPDEST POP DUP5 DUP3 LT ISZERO PUSH2 0x370 JUMPI DUP7 DUP5 ADD MLOAD PUSH0 NOT PUSH1 0x3 DUP8 SWAP1 SHL PUSH1 0xF8 AND SHR NOT AND DUP2 SSTORE JUMPDEST POP POP POP POP PUSH1 0x1 SWAP1 DUP2 SHL ADD SWAP1 SSTORE POP JUMP JUMPDEST PUSH0 PUSH1 0x20 DUP3 DUP5 SUB SLT ISZERO PUSH2 0x38F JUMPI PUSH0 DUP1 REVERT JUMPDEST POP MLOAD SWAP2 SWAP1 POP JUMP JUMPDEST PUSH4 0x4E487B71 PUSH1 0xE0 SHL PUSH0 MSTORE PUSH1 0x11 PUSH1 0x4 MSTORE PUSH1 0x24 PUSH0 REVERT JUMPDEST PUSH1 0x1 DUP2 JUMPDEST PUSH1 0x1 DUP5 GT ISZERO PUSH2 0x3E5 JUMPI DUP1 DUP6 DIV DUP2 GT ISZERO PUSH2 0x3C9 JUMPI PUSH2 0x3C9 PUSH2 0x396 JUMP JUMPDEST PUSH1 0x1 DUP5 AND ISZERO PUSH2 0x3D7 JUMPI SWAP1 DUP2 MUL SWAP1 JUMPDEST PUSH1 0x1 SWAP4 SWAP1 SWAP4 SHR SWAP3 DUP1 MUL PUSH2 0x3AE JUMP JUMPDEST SWAP4 POP SWAP4 SWAP2 POP POP JUMP JUMPDEST PUSH0 DUP3 PUSH2 0x3FB JUMPI POP PUSH1 0x1 PUSH2 0x489 JUMP JUMPDEST DUP2 PUSH2 0x407 JUMPI POP PUSH0 PUSH2 0x489 JUMP JUMPDEST DUP2 PUSH1 0x1 DUP2 EQ PUSH2 0x41D JUMPI PUSH1 0x2 DUP2 EQ PUSH2 0x427 JUMPI PUSH2 0x443 JUMP JUMPDEST PUSH1 0x1 SWAP2 POP POP PUSH2 0x489 JUMP JUMPDEST PUSH1 0xFF DUP5 GT ISZERO PUSH2 0x438 JUMPI PUSH2 0x438 PUSH2 0x396 JUMP JUMPDEST POP POP PUSH1 0x1 DUP3 SHL PUSH2 0x489 JUMP JUMPDEST POP PUSH1 0x20 DUP4 LT PUSH2 0x133 DUP4 LT AND PUSH1 0x4E DUP5 LT PUSH1 0xB DUP5 LT AND OR ISZERO PUSH2 0x466 JUMPI POP DUP2 DUP2 EXP PUSH2 0x489 JUMP JUMPDEST PUSH2 0x472 PUSH0 NOT DUP5 DUP5 PUSH2 0x3AA JUMP JUMPDEST DUP1 PUSH0 NOT DIV DUP3 GT ISZERO PUSH2 0x485 JUMPI PUSH2 0x485 PUSH2 0x396 JUMP JUMPDEST MUL SWAP1 POP JUMPDEST SWAP3 SWAP2 POP POP JUMP JUMPDEST PUSH0 PUSH2 0x49D PUSH1 0xFF DUP5 AND DUP4 PUSH2 0x3ED JUMP JUMPDEST SWAP4 SWAP3 POP POP POP JUMP JUMPDEST DUP1 DUP3 MUL DUP2 ISZERO DUP3 DUP3 DIV DUP5 EQ OR PUSH2 0x489 JUMPI PUSH2 0x489 PUSH2 0x396 JUMP JUMPDEST PUSH0 DUP3 PUSH2 0x4D5 JUMPI PUSH4 0x4E487B71 PUSH1 0xE0 SHL PUSH0 MSTORE PUSH1 0x12 PUSH1 0x4 MSTORE PUSH1 0x24 PUSH0 REVERT JUMPDEST POP DIV SWAP1 JUMP JUMPDEST DUP2 DUP2 SUB DUP2 DUP2 GT ISZERO PUSH2 0x489 JUMPI PUSH2 0x489 PUSH2 0x396 JUMP JUMPDEST DUP1 DUP3 ADD DUP1 DUP3 GT ISZERO PUSH2 0x489 JUMPI PUSH2 0x489 PUSH2 0x396 JUMP JUMPDEST PUSH2 0xA41 DUP1 PUSH2 0x50D PUSH0 CODECOPY PUSH0 RETURN INVALID PUSH1 0x80 PUSH1 0x40 MSTORE PUSH1 0x4 CALLDATASIZE LT PUSH2 0x130 JUMPI PUSH0 CALLDATALOAD PUSH1 0xE0 SHR DUP1 PUSH4 0x811BE779 GT PUSH2 0xA8 JUMPI DUP1 PUSH4 0xC10B9358 GT PUSH2 0x6D JUMPI DUP1 PUSH4 0xC10B9358 EQ PUSH2 0x327 JUMPI DUP1 PUSH4 0xD0FEBE4C EQ PUSH2 0x33C JUMPI DUP1 PUSH4 0xDD62ED3E EQ PUSH2 0x344 JUMPI DUP1 PUSH4 0xEE2923D9 EQ PUSH2 0x37A JUMPI DUP1 PUSH4 0xF51F96DD EQ PUSH2 0x3BD JUMPI DUP1 PUSH4 0xF68F210B EQ PUSH2 0x3D2 JUMPI PUSH0 DUP1 REVERT JUMPDEST DUP1 PUSH4 0x811BE779 EQ PUSH2 0x288 JUMPI DUP1 PUSH4 0x8DA5CB5B EQ PUSH2 0x29D JUMPI DUP1 PUSH4 0x95D89B41 EQ PUSH2 0x2D4 JUMPI DUP1 PUSH4 0xA5CE413B EQ PUSH2 0x2E8 JUMPI DUP1 PUSH4 0xADE6FA27 EQ PUSH2 0x2FC JUMPI PUSH0 DUP1 REVERT JUMPDEST DUP1 PUSH4 0x313CE567 GT PUSH2 0xF9 JUMPI DUP1 PUSH4 0x313CE567 EQ PUSH2 0x1BC JUMPI DUP1 PUSH4 0x45BC78AB EQ PUSH2 0x1E7 JUMPI DUP1 PUSH4 0x665A11CA EQ PUSH2 0x212 JUMPI DUP1 PUSH4 0x6816521A EQ PUSH2 0x227 JUMPI DUP1 PUSH4 0x70A08231 EQ PUSH2 0x23C JUMPI DUP1 PUSH4 0x7547C7A3 EQ PUSH2 0x267 JUMPI PUSH0 DUP1 REVERT JUMPDEST DUP1 PUSH3 0xE7FA8 EQ PUSH2 0x134 JUMPI DUP1 PUSH4 0x6FDDE03 EQ PUSH2 0x15C JUMPI DUP1 PUSH4 0x15F0C220 EQ PUSH2 0x17D JUMPI DUP1 PUSH4 0x18160DDD EQ PUSH2 0x192 JUMPI DUP1 PUSH4 0x229F3E29 EQ PUSH2 0x1A7 JUMPI JUMPDEST PUSH0 DUP1 REVERT JUMPDEST CALLVALUE DUP1 ISZERO PUSH2 0x13F JUMPI PUSH0 DUP1 REVERT JUMPDEST POP PUSH2 0x149 PUSH1 0xE SLOAD DUP2 JUMP JUMPDEST PUSH1 0x40 MLOAD SWAP1 DUP2 MSTORE PUSH1 0x20 ADD JUMPDEST PUSH1 0x40 MLOAD DUP1 SWAP2 SUB SWAP1 RETURN JUMPDEST CALLVALUE DUP1 ISZERO PUSH2 0x167 JUMPI PUSH0 DUP1 REVERT JUMPDEST POP PUSH2 0x170 PUSH2 0x3E7 JUMP JUMPDEST PUSH1 0x40 MLOAD PUSH2 0x153 SWAP2 SWAP1 PUSH2 0x7B4 JUMP JUMPDEST CALLVALUE DUP1 ISZERO PUSH2 0x188 JUMPI PUSH0 DUP1 REVERT JUMPDEST POP PUSH2 0x149 PUSH1 0x6 SLOAD DUP2 JUMP JUMPDEST CALLVALUE DUP1 ISZERO PUSH2 0x19D JUMPI PUSH0 DUP1 REVERT JUMPDEST POP PUSH2 0x149 PUSH1 0x3 SLOAD DUP2 JUMP JUMPDEST CALLVALUE DUP1 ISZERO PUSH2 0x1B2 JUMPI PUSH0 DUP1 REVERT JUMPDEST POP PUSH2 0x149 PUSH1 0x10 SLOAD DUP2 JUMP JUMPDEST CALLVALUE DUP1 ISZERO PUSH2 0x1C7 JUMPI PUSH0 DUP1 REVERT JUMPDEST POP PUSH1 0x2 SLOAD PUSH2 0x1D5 SWAP1 PUSH1 0xFF AND DUP2 JUMP JUMPDEST PUSH1 0x40 MLOAD PUSH1 0xFF SWAP1 SWAP2 AND DUP2 MSTORE PUSH1 0x20 ADD PUSH2 0x153 JUMP JUMPDEST CALLVALUE DUP1 ISZERO PUSH2 0x1F2 JUMPI PUSH0 DUP1 REVERT JUMPDEST POP PUSH2 0x149 PUSH2 0x201 CALLDATASIZE PUSH1 0x4 PUSH2 0x804 JUMP JUMPDEST PUSH1 0xC PUSH1 0x20 MSTORE PUSH0 SWAP1 DUP2 MSTORE PUSH1 0x40 SWAP1 KECCAK256 SLOAD DUP2 JUMP JUMPDEST CALLVALUE DUP1 ISZERO PUSH2 0x21D JUMPI PUSH0 DUP1 REVERT JUMPDEST POP PUSH2 0x149 PUSH1 0x8 SLOAD DUP2 JUMP JUMPDEST CALLVALUE DUP1 ISZERO PUSH2 0x232 JUMPI PUSH0 DUP1 REVERT JUMPDEST POP PUSH2 0x149 PUSH1 0x5 SLOAD DUP2 JUMP JUMPDEST CALLVALUE DUP1 ISZERO PUSH2 0x247 JUMPI PUSH0 DUP1 REVERT JUMPDEST POP PUSH2 0x149 PUSH2 0x256 CALLDATASIZE PUSH1 0x4 PUSH2 0x804 JUMP JUMPDEST PUSH1 0xA PUSH1 0x20 MSTORE PUSH0 SWAP1 DUP2 MSTORE PUSH1 0x40 SWAP1 KECCAK256 SLOAD DUP2 JUMP JUMPDEST CALLVALUE DUP1 ISZERO PUSH2 0x272 JUMPI PUSH0 DUP1 REVERT JUMPDEST POP PUSH2 0x286 PUSH2 0x281 CALLDATASIZE PUSH1 0x4 PUSH2 0x824 JUMP JUMPDEST PUSH2 0x472 JUMP JUMPDEST STOP JUMPDEST CALLVALUE DUP1 ISZERO PUSH2 0x293 JUMPI PUSH0 DUP1 REVERT JUMPDEST POP PUSH2 0x149 PUSH1 0x9 SLOAD DUP2 JUMP JUMPDEST CALLVALUE DUP1 ISZERO PUSH2 0x2A8 JUMPI PUSH0 DUP1 REVERT JUMPDEST POP PUSH1 0x4 SLOAD PUSH2 0x2BC SWAP1 PUSH1 0x1 PUSH1 0x1 PUSH1 0xA0 SHL SUB AND DUP2 JUMP JUMPDEST PUSH1 0x40 MLOAD PUSH1 0x1 PUSH1 0x1 PUSH1 0xA0 SHL SUB SWAP1 SWAP2 AND DUP2 MSTORE PUSH1 0x20 ADD PUSH2 0x153 JUMP JUMPDEST CALLVALUE DUP1 ISZERO PUSH2 0x2DF JUMPI PUSH0 DUP1 REVERT JUMPDEST POP PUSH2 0x170 PUSH2 0x560 JUMP JUMPDEST CALLVALUE DUP1 ISZERO PUSH2 0x2F3 JUMPI PUSH0 DUP1 REVERT JUMPDEST POP PUSH2 0x286 PUSH2 0x56D JUMP JUMPDEST CALLVALUE DUP1 ISZERO PUSH2 0x307 JUMPI PUSH0 DUP1 REVERT JUMPDEST POP PUSH2 0x149 PUSH2 0x316 CALLDATASIZE PUSH1 0x4 PUSH2 0x804 JUMP JUMPDEST PUSH1 0xD PUSH1 0x20 MSTORE PUSH0 SWAP1 DUP2 MSTORE PUSH1 0x40 SWAP1 KECCAK256 SLOAD DUP2 JUMP JUMPDEST CALLVALUE DUP1 ISZERO PUSH2 0x332 JUMPI PUSH0 DUP1 REVERT JUMPDEST POP PUSH2 0x149 PUSH1 0x11 SLOAD DUP2 JUMP JUMPDEST PUSH2 0x286 PUSH2 0x678 JUMP JUMPDEST CALLVALUE DUP1 ISZERO PUSH2 0x34F JUMPI PUSH0 DUP1 REVERT JUMPDEST POP PUSH2 0x149 PUSH2 0x35E CALLDATASIZE PUSH1 0x4 PUSH2 0x83B JUMP JUMPDEST PUSH1 0xB PUSH1 0x20 SWAP1 DUP2 MSTORE PUSH0 SWAP3 DUP4 MSTORE PUSH1 0x40 DUP1 DUP5 KECCAK256 SWAP1 SWAP2 MSTORE SWAP1 DUP3 MSTORE SWAP1 KECCAK256 SLOAD DUP2 JUMP JUMPDEST CALLVALUE DUP1 ISZERO PUSH2 0x385 JUMPI PUSH0 DUP1 REVERT JUMPDEST POP PUSH1 0x5 SLOAD PUSH1 0x6 SLOAD PUSH1 0x7 SLOAD PUSH1 0x8 SLOAD PUSH1 0x9 SLOAD PUSH1 0x40 DUP1 MLOAD SWAP6 DUP7 MSTORE PUSH1 0x20 DUP7 ADD SWAP5 SWAP1 SWAP5 MSTORE SWAP3 DUP5 ADD SWAP2 SWAP1 SWAP2 MSTORE PUSH1 0x60 DUP4 ADD MSTORE PUSH1 0x80 DUP3 ADD MSTORE PUSH1 0xA0 ADD PUSH2 0x153 JUMP JUMPDEST CALLVALUE DUP1 ISZERO PUSH2 0x3C8 JUMPI PUSH0 DUP1 REVERT JUMPDEST POP PUSH2 0x149 PUSH1 0xF SLOAD DUP2 JUMP JUMPDEST CALLVALUE DUP1 ISZERO PUSH2 0x3DD JUMPI PUSH0 DUP1 REVERT JUMPDEST POP PUSH2 0x149 PUSH1 0x7 SLOAD DUP2 JUMP JUMPDEST PUSH0 DUP1 SLOAD PUSH2 0x3F3 SWAP1 PUSH2 0x86C JUMP JUMPDEST DUP1 PUSH1 0x1F ADD PUSH1 0x20 DUP1 SWAP2 DIV MUL PUSH1 0x20 ADD PUSH1 0x40 MLOAD SWAP1 DUP2 ADD PUSH1 0x40 MSTORE DUP1 SWAP3 SWAP2 SWAP1 DUP2 DUP2 MSTORE PUSH1 0x20 ADD DUP3 DUP1 SLOAD PUSH2 0x41F SWAP1 PUSH2 0x86C JUMP JUMPDEST DUP1 ISZERO PUSH2 0x46A JUMPI DUP1 PUSH1 0x1F LT PUSH2 0x441 JUMPI PUSH2 0x100 DUP1 DUP4 SLOAD DIV MUL DUP4 MSTORE SWAP2 PUSH1 0x20 ADD SWAP2 PUSH2 0x46A JUMP JUMPDEST DUP3 ADD SWAP2 SWAP1 PUSH0 MSTORE PUSH1 0x20 PUSH0 KECCAK256 SWAP1 JUMPDEST DUP2 SLOAD DUP2 MSTORE SWAP1 PUSH1 0x1 ADD SWAP1 PUSH1 0x20 ADD DUP1 DUP4 GT PUSH2 0x44D JUMPI DUP3 SWAP1 SUB PUSH1 0x1F AND DUP3 ADD SWAP2 JUMPDEST POP POP POP POP POP DUP2 JUMP JUMPDEST CALLER PUSH0 SWAP1 DUP2 MSTORE PUSH1 0xA PUSH1 0x20 MSTORE PUSH1 0x40 SWAP1 KECCAK256 SLOAD DUP2 GT ISZERO PUSH2 0x4CC JUMPI PUSH1 0x40 MLOAD PUSH3 0x461BCD PUSH1 0xE5 SHL DUP2 MSTORE PUSH1 0x20 PUSH1 0x4 DUP3 ADD MSTORE PUSH1 0x14 PUSH1 0x24 DUP3 ADD MSTORE PUSH20 0x496E73756666696369656E742062616C616E6365 PUSH1 0x60 SHL PUSH1 0x44 DUP3 ADD MSTORE PUSH1 0x64 ADD JUMPDEST PUSH1 0x40 MLOAD DUP1 SWAP2 SUB SWAP1 REVERT JUMPDEST CALLER PUSH0 SWAP1 DUP2 MSTORE PUSH1 0xA PUSH1 0x20 MSTORE PUSH1 0x40 DUP2 KECCAK256 DUP1 SLOAD DUP4 SWAP3 SWAP1 PUSH2 0x4EA SWAP1 DUP5 SWAP1 PUSH2 0x8B8 JUMP JUMPDEST SWAP1 SWAP2 SSTORE POP POP CALLER PUSH0 SWAP1 DUP2 MSTORE PUSH1 0xC PUSH1 0x20 MSTORE PUSH1 0x40 DUP2 KECCAK256 DUP1 SLOAD DUP4 SWAP3 SWAP1 PUSH2 0x50D SWAP1 DUP5 SWAP1 PUSH2 0x8D1 JUMP JUMPDEST SWAP1 SWAP2 SSTORE POP POP CALLER PUSH0 DUP2 DUP2 MSTORE PUSH1 0xD PUSH1 0x20 MSTORE PUSH1 0x40 SWAP1 DUP2 SWAP1 KECCAK256 TIMESTAMP SWAP1 SSTORE MLOAD PUSH32 0xEBEDB8B3C678666E7F36970BC8F57ABF6D8FA2E828C0DA91EA5B75BF68ED101A SWAP1 PUSH2 0x555 SWAP1 DUP5 DUP2 MSTORE PUSH1 0x20 ADD SWAP1 JUMP JUMPDEST PUSH1 0x40 MLOAD DUP1 SWAP2 SUB SWAP1 LOG2 POP JUMP JUMPDEST PUSH1 0x1 DUP1 SLOAD PUSH2 0x3F3 SWAP1 PUSH2 0x86C JUMP JUMPDEST CALLER PUSH0 SWAP1 DUP2 MSTORE PUSH1 0xC PUSH1 0x20 MSTORE PUSH1 0x40 SWAP1 KECCAK256 SLOAD DUP1 PUSH2 0x5BE JUMPI PUSH1 0x40 MLOAD PUSH3 0x461BCD PUSH1 0xE5 SHL DUP2 MSTORE PUSH1 0x20 PUSH1 0x4 DUP3 ADD MSTORE PUSH1 0x12 PUSH1 0x24 DUP3 ADD MSTORE PUSH18 0x4E6F7468696E6720746F20756E7374616B65 PUSH1 0x70 SHL PUSH1 0x44 DUP3 ADD MSTORE PUSH1 0x64 ADD PUSH2 0x4C3 JUMP JUMPDEST CALLER PUSH0 SWAP1 DUP2 MSTORE PUSH1 0xD PUSH1 0x20 MSTORE PUSH1 0x40 DUP2 KECCAK256 SLOAD PUSH3 0x15180 SWAP1 PUSH2 0x5DC SWAP1 TIMESTAMP PUSH2 0x8B8 JUMP JUMPDEST PUSH2 0x5E6 SWAP1 DUP5 PUSH2 0x8E4 JUMP JUMPDEST PUSH2 0x5F0 SWAP2 SWAP1 PUSH2 0x8FB JUMP JUMPDEST PUSH2 0x601 SWAP1 PUSH7 0x38D7EA4C68000 PUSH2 0x8E4 JUMP JUMPDEST CALLER PUSH0 SWAP1 DUP2 MSTORE PUSH1 0xC PUSH1 0x20 MSTORE PUSH1 0x40 DUP2 KECCAK256 SSTORE SWAP1 POP PUSH2 0x61C DUP2 DUP4 PUSH2 0x8D1 JUMP JUMPDEST CALLER PUSH0 SWAP1 DUP2 MSTORE PUSH1 0xA PUSH1 0x20 MSTORE PUSH1 0x40 DUP2 KECCAK256 DUP1 SLOAD SWAP1 SWAP2 SWAP1 PUSH2 0x63A SWAP1 DUP5 SWAP1 PUSH2 0x8D1 JUMP JUMPDEST SWAP1 SWAP2 SSTORE POP POP PUSH1 0x40 MLOAD DUP3 DUP2 MSTORE CALLER SWAP1 PUSH32 0x85082129D87B2FE11527CB1B3B7A520AEB5AA6913F88A3D8757FE40D1DB02FDD SWAP1 PUSH1 0x20 ADD PUSH1 0x40 MLOAD DUP1 SWAP2 SUB SWAP1 LOG2 POP POP JUMP JUMPDEST PUSH0 PUSH1 0x10 SLOAD TIMESTAMP GT ISZERO PUSH2 0x68B JUMPI PUSH1 0xF SLOAD PUSH2 0x68F JUMP JUMPDEST PUSH1 0xE SLOAD JUMPDEST PUSH1 0x2 SLOAD SWAP1 SWAP2 POP PUSH0 SWAP1 DUP3 SWAP1 PUSH2 0x6A7 SWAP1 PUSH1 0xFF AND PUSH1 0xA PUSH2 0x9FD JUMP JUMPDEST PUSH2 0x6B1 SWAP1 CALLVALUE PUSH2 0x8E4 JUMP JUMPDEST PUSH2 0x6BB SWAP2 SWAP1 PUSH2 0x8FB JUMP JUMPDEST PUSH1 0x4 SLOAD PUSH1 0x1 PUSH1 0x1 PUSH1 0xA0 SHL SUB AND PUSH0 SWAP1 DUP2 MSTORE PUSH1 0xA PUSH1 0x20 MSTORE PUSH1 0x40 SWAP1 KECCAK256 SLOAD SWAP1 SWAP2 POP DUP2 GT ISZERO PUSH2 0x71D JUMPI PUSH1 0x40 MLOAD PUSH3 0x461BCD PUSH1 0xE5 SHL DUP2 MSTORE PUSH1 0x20 PUSH1 0x4 DUP3 ADD MSTORE PUSH1 0x13 PUSH1 0x24 DUP3 ADD MSTORE PUSH19 0x496E73756666696369656E7420737570706C79 PUSH1 0x68 SHL PUSH1 0x44 DUP3 ADD MSTORE PUSH1 0x64 ADD PUSH2 0x4C3 JUMP JUMPDEST PUSH1 0x4 SLOAD PUSH1 0x1 PUSH1 0x1 PUSH1 0xA0 SHL SUB AND PUSH0 SWAP1 DUP2 MSTORE PUSH1 0xA PUSH1 0x20 MSTORE PUSH1 0x40 DUP2 KECCAK256 DUP1 SLOAD DUP4 SWAP3 SWAP1 PUSH2 0x746 SWAP1 DUP5 SWAP1 PUSH2 0x8B8 JUMP JUMPDEST SWAP1 SWAP2 SSTORE POP POP CALLER PUSH0 SWAP1 DUP2 MSTORE PUSH1 0xA PUSH1 0x20 MSTORE PUSH1 0x40 DUP2 KECCAK256 DUP1 SLOAD DUP4 SWAP3 SWAP1 PUSH2 0x769 SWAP1 DUP5 SWAP1 PUSH2 0x8D1 JUMP JUMPDEST SWAP1 SWAP2 SSTORE POP POP PUSH1 0x4 SLOAD PUSH1 0x40 MLOAD DUP3 DUP2 MSTORE CALLER SWAP2 PUSH1 0x1 PUSH1 0x1 PUSH1 0xA0 SHL SUB AND SWAP1 PUSH32 0xDDF252AD1BE2C89B69C2B068FC378DAA952BA7F163C4A11628F55A4DF523B3EF SWAP1 PUSH1 0x20 ADD PUSH1 0x40 MLOAD DUP1 SWAP2 SUB SWAP1 LOG3 POP POP JUMP JUMPDEST PUSH1 0x20 DUP2 MSTORE PUSH0 DUP3 MLOAD DUP1 PUSH1 0x20 DUP5 ADD MSTORE DUP1 PUSH1 0x20 DUP6 ADD PUSH1 0x40 DUP6 ADD MCOPY PUSH0 PUSH1 0x40 DUP3 DUP6 ADD ADD MSTORE PUSH1 0x40 PUSH1 0x1F NOT PUSH1 0x1F DUP4 ADD AND DUP5 ADD ADD SWAP2 POP POP SWAP3 SWAP2 POP POP JUMP JUMPDEST DUP1 CALLDATALOAD PUSH1 0x1 PUSH1 0x1 PUSH1 0xA0 SHL SUB DUP2 AND DUP2 EQ PUSH2 0x7FF JUMPI PUSH0 DUP1 REVERT JUMPDEST SWAP2 SWAP1 POP JUMP JUMPDEST PUSH0 PUSH1 0x20 DUP3 DUP5 SUB SLT ISZERO PUSH2 0x814 JUMPI PUSH0 DUP1 REVERT JUMPDEST PUSH2 0x81D DUP3 PUSH2 0x7E9 JUMP JUMPDEST SWAP4 SWAP3 POP POP POP JUMP JUMPDEST PUSH0 PUSH1 0x20 DUP3 DUP5 SUB SLT ISZERO PUSH2 0x834 JUMPI PUSH0 DUP1 REVERT JUMPDEST POP CALLDATALOAD SWAP2 SWAP1 POP JUMP JUMPDEST PUSH0 DUP1 PUSH1 0x40 DUP4 DUP6 SUB SLT ISZERO PUSH2 0x84C JUMPI PUSH0 DUP1 REVERT JUMPDEST PUSH2 0x855 DUP4 PUSH2 0x7E9 JUMP JUMPDEST SWAP2 POP PUSH2 0x863 PUSH1 0x20 DUP5 ADD PUSH2 0x7E9 JUMP JUMPDEST SWAP1 POP SWAP3 POP SWAP3 SWAP1 POP JUMP JUMPDEST PUSH1 0x1 DUP2 DUP2 SHR SWAP1 DUP3 AND DUP1 PUSH2 0x880 JUMPI PUSH1 0x7F DUP3 AND SWAP2 POP JUMPDEST PUSH1 0x20 DUP3 LT DUP2 SUB PUSH2 0x89E JUMPI PUSH4 0x4E487B71 PUSH1 0xE0 SHL PUSH0 MSTORE PUSH1 0x22 PUSH1 0x4 MSTORE PUSH1 0x24 PUSH0 REVERT JUMPDEST POP SWAP2 SWAP1 POP JUMP JUMPDEST PUSH4 0x4E487B71 PUSH1 0xE0 SHL PUSH0 MSTORE PUSH1 0x11 PUSH1 0x4 MSTORE PUSH1 0x24 PUSH0 REVERT JUMPDEST DUP2 DUP2 SUB DUP2 DUP2 GT ISZERO PUSH2 0x8CB JUMPI PUSH2 0x8CB PUSH2 0x8A4 JUMP JUMPDEST SWAP3 SWAP2 POP POP JUMP JUMPDEST DUP1 DUP3 ADD DUP1 DUP3 GT ISZERO PUSH2 0x8CB JUMPI PUSH2 0x8CB PUSH2 0x8A4 JUMP JUMPDEST DUP1 DUP3 MUL DUP2 ISZERO DUP3 DUP3 DIV DUP5 EQ OR PUSH2 0x8CB JUMPI PUSH2 0x8CB PUSH2 0x8A4 JUMP JUMPDEST PUSH0 DUP3 PUSH2 0x915 JUMPI PUSH4 0x4E487B71 PUSH1 0xE0 SHL PUSH0 MSTORE PUSH1 0x12 PUSH1 0x4 MSTORE PUSH1 0x24 PUSH0 REVERT JUMPDEST POP DIV SWAP1 JUMP JUMPDEST PUSH1 0x1 DUP2 JUMPDEST PUSH1 0x1 DUP5 GT ISZERO PUSH2 0x955 JUMPI DUP1 DUP6 DIV DUP2 GT ISZERO PUSH2 0x939 JUMPI PUSH2 0x939 PUSH2 0x8A4 JUMP JUMPDEST PUSH1 0x1 DUP5 AND ISZERO PUSH2 0x947 JUMPI SWAP1 DUP2 MUL SWAP1 JUMPDEST PUSH1 0x1 SWAP4 SWAP1 SWAP4 SHR SWAP3 DUP1 MUL PUSH2 0x91E JUMP JUMPDEST SWAP4 POP SWAP4 SWAP2 POP POP JUMP JUMPDEST PUSH0 DUP3 PUSH2 0x96B JUMPI POP PUSH1 0x1 PUSH2 0x8CB JUMP JUMPDEST DUP2 PUSH2 0x977 JUMPI POP PUSH0 PUSH2 0x8CB JUMP JUMPDEST DUP2 PUSH1 0x1 DUP2 EQ PUSH2 0x98D JUMPI PUSH1 0x2 DUP2 EQ PUSH2 0x997 JUMPI PUSH2 0x9B3 JUMP JUMPDEST PUSH1 0x1 SWAP2 POP POP PUSH2 0x8CB JUMP JUMPDEST PUSH1 0xFF DUP5 GT ISZERO PUSH2 0x9A8 JUMPI PUSH2 0x9A8 PUSH2 0x8A4 JUMP JUMPDEST POP POP PUSH1 0x1 DUP3 SHL PUSH2 0x8CB JUMP JUMPDEST POP PUSH1 0x20 DUP4 LT PUSH2 0x133 DUP4 LT AND PUSH1 0x4E DUP5 LT PUSH1 0xB DUP5 LT AND OR ISZERO PUSH2 0x9D6 JUMPI POP DUP2 DUP2 EXP PUSH2 0x8CB JUMP JUMPDEST PUSH2 0x9E2 PUSH0 NOT DUP5 DUP5 PUSH2 0x91A JUMP JUMPDEST DUP1 PUSH0 NOT DIV DUP3 GT ISZERO PUSH2 0x9F5 JUMPI PUSH2 0x9F5 PUSH2 0x8A4 JUMP JUMPDEST MUL SWAP4 SWAP3 POP POP POP JUMP JUMPDEST PUSH0 PUSH2 0x81D PUSH1 0xFF DUP5 AND DUP4 PUSH2 0x95D JUMP INVALID LOG2 PUSH5 0x6970667358 0x22 SLT KECCAK256 0xD SWAP8 EXTCODECOPY SLT 0x26 TLOAD REVERT PUSH19 0xDB6FCE3A7319430283DF6CB0F7F22E2F9294F1 0x26 CREATE2 0xD7 CODESIZE 0xDA PUSH5 0x736F6C6343 STOP ADDMOD BYTE STOP CALLER "
		},
		"gasEstimates": {
			"creation": {
				"codeDepositCost": "525000",
				"executionCost": "infinite",
				"totalCost": "infinite"
			},
			"external": {
				"allowance(address,address)": "infinite",
				"balanceOf(address)": "2616",
				"buyTokens()": "infinite",
				"decimals()": "2335",
				"developmentPool()": "2306",
				"getTokenomics()": "10860",
				"liquidityPool()": "2350",
				"marketingAllocation()": "2351",
				"name()": "infinite",
				"owner()": "2381",
				"presaleEnd()": "2395",
				"presalePrice()": "2307",
				"saleEnd()": "2305",
				"salePrice()": "2393",
				"stakeTokens(uint256)": "infinite",
				"stakingBalance(address)": "2550",
				"stakingRewardsPool()": "2415",
				"stakingStart(address)": "2616",
				"symbol()": "infinite",
				"teamAllocation()": "2372",
				"totalSupply()": "2373",
				"unstakeTokens()": "infinite"
			}
		},
		"methodIdentifiers": {
			"allowance(address,address)": "dd62ed3e",
			"balanceOf(address)": "70a08231",
			"buyTokens()": "d0febe4c",
			"decimals()": "313ce567",
			"developmentPool()": "811be779",
			"getTokenomics()": "ee2923d9",
			"liquidityPool()": "665a11ca",
			"marketingAllocation()": "15f0c220",
			"name()": "06fdde03",
			"owner()": "8da5cb5b",
			"presaleEnd()": "229f3e29",
			"presalePrice()": "000e7fa8",
			"saleEnd()": "c10b9358",
			"salePrice()": "f51f96dd",
			"stakeTokens(uint256)": "7547c7a3",
			"stakingBalance(address)": "45bc78ab",
			"stakingRewardsPool()": "f68f210b",
			"stakingStart(address)": "ade6fa27",
			"symbol()": "95d89b41",
			"teamAllocation()": "6816521a",
			"totalSupply()": "18160ddd",
			"unstakeTokens()": "a5ce413b"
		}
	},
	"abi": [
		{
			"inputs": [
				{
					"internalType": "uint256",
					"name": "_initialSupply",
					"type": "uint256"
				}
			],
			"stateMutability": "nonpayable",
			"type": "constructor"
		},
		{
			"anonymous": false,
			"inputs": [
				{
					"indexed": true,
					"internalType": "address",
					"name": "owner",
					"type": "address"
				},
				{
					"indexed": true,
					"internalType": "address",
					"name": "spender",
					"type": "address"
				},
				{
					"indexed": false,
					"internalType": "uint256",
					"name": "value",
					"type": "uint256"
				}
			],
			"name": "Approval",
			"type": "event"
		},
		{
			"anonymous": false,
			"inputs": [
				{
					"indexed": true,
					"internalType": "address",
					"name": "previousOwner",
					"type": "address"
				},
				{
					"indexed": true,
					"internalType": "address",
					"name": "newOwner",
					"type": "address"
				}
			],
			"name": "OwnershipTransferred",
			"type": "event"
		},
		{
			"anonymous": false,
			"inputs": [
				{
					"indexed": true,
					"internalType": "address",
					"name": "staker",
					"type": "address"
				},
				{
					"indexed": false,
					"internalType": "uint256",
					"name": "amount",
					"type": "uint256"
				}
			],
			"name": "Stake",
			"type": "event"
		},
		{
			"anonymous": false,
			"inputs": [
				{
					"indexed": true,
					"internalType": "address",
					"name": "from",
					"type": "address"
				},
				{
					"indexed": true,
					"internalType": "address",
					"name": "to",
					"type": "address"
				},
				{
					"indexed": false,
					"internalType": "uint256",
					"name": "value",
					"type": "uint256"
				}
			],
			"name": "Transfer",
			"type": "event"
		},
		{
			"anonymous": false,
			"inputs": [
				{
					"indexed": true,
					"internalType": "address",
					"name": "staker",
					"type": "address"
				},
				{
					"indexed": false,
					"internalType": "uint256",
					"name": "amount",
					"type": "uint256"
				}
			],
			"name": "Unstake",
			"type": "event"
		},
		{
			"inputs": [
				{
					"internalType": "address",
					"name": "",
					"type": "address"
				},
				{
					"internalType": "address",
					"name": "",
					"type": "address"
				}
			],
			"name": "allowance",
			"outputs": [
				{
					"internalType": "uint256",
					"name": "",
					"type": "uint256"
				}
			],
			"stateMutability": "view",
			"type": "function"
		},
		{
			"inputs": [
				{
					"internalType": "address",
					"name": "",
					"type": "address"
				}
			],
			"name": "balanceOf",
			"outputs": [
				{
					"internalType": "uint256",
					"name": "",
					"type": "uint256"
				}
			],
			"stateMutability": "view",
			"type": "function"
		},
		{
			"inputs": [],
			"name": "buyTokens",
			"outputs": [],
			"stateMutability": "payable",
			"type": "function"
		},
		{
			"inputs": [],
			"name": "decimals",
			"outputs": [
				{
					"internalType": "uint8",
					"name": "",
					"type": "uint8"
				}
			],
			"stateMutability": "view",
			"type": "function"
		},
		{
			"inputs": [],
			"name": "developmentPool",
			"outputs": [
				{
					"internalType": "uint256",
					"name": "",
					"type": "uint256"
				}
			],
			"stateMutability": "view",
			"type": "function"
		},
		{
			"inputs": [],
			"name": "getTokenomics",
			"outputs": [
				{
					"internalType": "uint256",
					"name": "",
					"type": "uint256"
				},
				{
					"internalType": "uint256",
					"name": "",
					"type": "uint256"
				},
				{
					"internalType": "uint256",
					"name": "",
					"type": "uint256"
				},
				{
					"internalType": "uint256",
					"name": "",
					"type": "uint256"
				},
				{
					"internalType": "uint256",
					"name": "",
					"type": "uint256"
				}
			],
			"stateMutability": "view",
			"type": "function"
		},
		{
			"inputs": [],
			"name": "liquidityPool",
			"outputs": [
				{
					"internalType": "uint256",
					"name": "",
					"type": "uint256"
				}
			],
			"stateMutability": "view",
			"type": "function"
		},
		{
			"inputs": [],
			"name": "marketingAllocation",
			"outputs": [
				{
					"internalType": "uint256",
					"name": "",
					"type": "uint256"
				}
			],
			"stateMutability": "view",
			"type": "function"
		},
		{
			"inputs": [],
			"name": "name",
			"outputs": [
				{
					"internalType": "string",
					"name": "",
					"type": "string"
				}
			],
			"stateMutability": "view",
			"type": "function"
		},
		{
			"inputs": [],
			"name": "owner",
			"outputs": [
				{
					"internalType": "address",
					"name": "",
					"type": "address"
				}
			],
			"stateMutability": "view",
			"type": "function"
		},
		{
			"inputs": [],
			"name": "presaleEnd",
			"outputs": [
				{
					"internalType": "uint256",
					"name": "",
					"type": "uint256"
				}
			],
			"stateMutability": "view",
			"type": "function"
		},
		{
			"inputs": [],
			"name": "presalePrice",
			"outputs": [
				{
					"internalType": "uint256",
					"name": "",
					"type": "uint256"
				}
			],
			"stateMutability": "view",
			"type": "function"
		},
		{
			"inputs": [],
			"name": "saleEnd",
			"outputs": [
				{
					"internalType": "uint256",
					"name": "",
					"type": "uint256"
				}
			],
			"stateMutability": "view",
			"type": "function"
		},
		{
			"inputs": [],
			"name": "salePrice",
			"outputs": [
				{
					"internalType": "uint256",
					"name": "",
					"type": "uint256"
				}
			],
			"stateMutability": "view",
			"type": "function"
		},
		{
			"inputs": [
				{
					"internalType": "uint256",
					"name": "_amount",
					"type": "uint256"
				}
			],
			"name": "stakeTokens",
			"outputs": [],
			"stateMutability": "nonpayable",
			"type": "function"
		},
		{
			"inputs": [
				{
					"internalType": "address",
					"name": "",
					"type": "address"
				}
			],
			"name": "stakingBalance",
			"outputs": [
				{
					"internalType": "uint256",
					"name": "",
					"type": "uint256"
				}
			],
			"stateMutability": "view",
			"type": "function"
		},
		{
			"inputs": [],
			"name": "stakingRewardsPool",
			"outputs": [
				{
					"internalType": "uint256",
					"name": "",
					"type": "uint256"
				}
			],
			"stateMutability": "view",
			"type": "function"
		},
		{
			"inputs": [
				{
					"internalType": "address",
					"name": "",
					"type": "address"
				}
			],
			"name": "stakingStart",
			"outputs": [
				{
					"internalType": "uint256",
					"name": "",
					"type": "uint256"
				}
			],
			"stateMutability": "view",
			"type": "function"
		},
		{
			"inputs": [],
			"name": "symbol",
			"outputs": [
				{
					"internalType": "string",
					"name": "",
					"type": "string"
				}
			],
			"stateMutability": "view",
			"type": "function"
		},
		{
			"inputs": [],
			"name": "teamAllocation",
			"outputs": [
				{
					"internalType": "uint256",
					"name": "",
					"type": "uint256"
				}
			],
			"stateMutability": "view",
			"type": "function"
		},
		{
			"inputs": [],
			"name": "totalSupply",
			"outputs": [
				{
					"internalType": "uint256",
					"name": "",
					"type": "uint256"
				}
			],
			"stateMutability": "view",
			"type": "function"
		},
		{
			"inputs": [],
			"name": "unstakeTokens",
			"outputs": [],
			"stateMutability": "nonpayable",
			"type": "function"
		}
	]
}